{
  "contractName": "Lottery",
  "abi": [
    {
      "inputs": [],
      "stateMutability": "nonpayable",
      "type": "constructor"
    },
    {
      "inputs": [],
      "name": "manager",
      "outputs": [
        {
          "internalType": "address",
          "name": "",
          "type": "address"
        }
      ],
      "stateMutability": "view",
      "type": "function"
    },
    {
      "inputs": [
        {
          "internalType": "uint256",
          "name": "",
          "type": "uint256"
        }
      ],
      "name": "players",
      "outputs": [
        {
          "internalType": "address payable",
          "name": "",
          "type": "address"
        }
      ],
      "stateMutability": "view",
      "type": "function"
    },
    {
      "inputs": [],
      "name": "winner",
      "outputs": [
        {
          "internalType": "address payable",
          "name": "",
          "type": "address"
        }
      ],
      "stateMutability": "view",
      "type": "function"
    },
    {
      "inputs": [],
      "name": "enter",
      "outputs": [],
      "stateMutability": "payable",
      "type": "function"
    },
    {
      "inputs": [],
      "name": "getPrizePool",
      "outputs": [
        {
          "internalType": "uint256",
          "name": "",
          "type": "uint256"
        }
      ],
      "stateMutability": "view",
      "type": "function"
    },
    {
      "inputs": [],
      "name": "pickWinner",
      "outputs": [],
      "stateMutability": "nonpayable",
      "type": "function"
    },
    {
      "inputs": [],
      "name": "getPlayers",
      "outputs": [
        {
          "internalType": "address payable[]",
          "name": "",
          "type": "address[]"
        }
      ],
      "stateMutability": "view",
      "type": "function"
    }
  ],
  "bytecode": "0x608060405234801561001057600080fd5b50336000806101000a81548173ffffffffffffffffffffffffffffffffffffffff021916908373ffffffffffffffffffffffffffffffffffffffff160217905550610bd8806100606000396000f3fe6080604052600436106100705760003560e01c80638b5b9ccc1161004e5780638b5b9ccc146100f8578063dfbf53ae14610164578063e97dcb62146101a5578063f71d96cb146101af57610070565b8063481c6a75146100755780635d495aea146100b6578063884bf67c146100cd575b600080fd5b34801561008157600080fd5b5061008a610214565b604051808273ffffffffffffffffffffffffffffffffffffffff16815260200191505060405180910390f35b3480156100c257600080fd5b506100cb610238565b005b3480156100d957600080fd5b506100e26104a5565b6040518082815260200191505060405180910390f35b34801561010457600080fd5b5061010d6105db565b6040518080602001828103825283818151815260200191508051906020019060200280838360005b83811015610150578082015181840152602081019050610135565b505050509050019250505060405180910390f35b34801561017057600080fd5b5061017961077a565b604051808273ffffffffffffffffffffffffffffffffffffffff16815260200191505060405180910390f35b6101ad6107a0565b005b3480156101bb57600080fd5b506101e8600480360360208110156101d257600080fd5b8101908080359060200190929190505050610993565b604051808273ffffffffffffffffffffffffffffffffffffffff16815260200191505060405180910390f35b60008054906101000a900473ffffffffffffffffffffffffffffffffffffffff1681565b604051806060016040528060248152602001610b576024913960008054906101000a900473ffffffffffffffffffffffffffffffffffffffff1673ffffffffffffffffffffffffffffffffffffffff163373ffffffffffffffffffffffffffffffffffffffff16148190610347576040517f08c379a00000000000000000000000000000000000000000000000000000000081526004018080602001828103825283818151815260200191508051906020019080838360005b8381101561030c5780820151818401526020810190506102f1565b50505050905090810190601f1680156103395780820380516001836020036101000a031916815260200191505b509250505060405180910390fd5b50600280805490506103576109d2565b8161035e57fe5b068154811061036957fe5b9060005260206000200160009054906101000a900473ffffffffffffffffffffffffffffffffffffffff16600160006101000a81548173ffffffffffffffffffffffffffffffffffffffff021916908373ffffffffffffffffffffffffffffffffffffffff160217905550600160009054906101000a900473ffffffffffffffffffffffffffffffffffffffff1673ffffffffffffffffffffffffffffffffffffffff166108fc6104186104a5565b9081150290604051600060405180830381858888f19350505050158015610443573d6000803e3d6000fd5b50600067ffffffffffffffff8111801561045c57600080fd5b5060405190808252806020026020018201604052801561048b5781602001602082028036833780820191505090505b50600290805190602001906104a1929190610a74565b5050565b60006040518060400160405280601a81526020017f5265737472696374656420746f206d616e61676572206f6e6c7900000000000081525060008054906101000a900473ffffffffffffffffffffffffffffffffffffffff1673ffffffffffffffffffffffffffffffffffffffff163373ffffffffffffffffffffffffffffffffffffffff161481906105d3576040517f08c379a00000000000000000000000000000000000000000000000000000000081526004018080602001828103825283818151815260200191508051906020019080838360005b8381101561059857808201518184015260208101905061057d565b50505050905090810190601f1680156105c55780820380516001836020036101000a031916815260200191505b509250505060405180910390fd5b504791505090565b6060604051806060016040528060288152602001610b7b6028913960008054906101000a900473ffffffffffffffffffffffffffffffffffffffff1673ffffffffffffffffffffffffffffffffffffffff163373ffffffffffffffffffffffffffffffffffffffff161481906106ec576040517f08c379a00000000000000000000000000000000000000000000000000000000081526004018080602001828103825283818151815260200191508051906020019080838360005b838110156106b1578082015181840152602081019050610696565b50505050905090810190601f1680156106de5780820380516001836020036101000a031916815260200191505b509250505060405180910390fd5b50600280548060200260200160405190810160405280929190818152602001828054801561076f57602002820191906000526020600020905b8160009054906101000a900473ffffffffffffffffffffffffffffffffffffffff1673ffffffffffffffffffffffffffffffffffffffff1681526020019060010190808311610725575b505050505091505090565b600160009054906101000a900473ffffffffffffffffffffffffffffffffffffffff1681565b6040518060400160405280601f81526020017f4d616e616765722063616e277420656e74657220746865206c6f74746572790081525060008054906101000a900473ffffffffffffffffffffffffffffffffffffffff1673ffffffffffffffffffffffffffffffffffffffff163373ffffffffffffffffffffffffffffffffffffffff16141581906108cd576040517f08c379a00000000000000000000000000000000000000000000000000000000081526004018080602001828103825283818151815260200191508051906020019080838360005b83811015610892578082015181840152602081019050610877565b50505050905090810190601f1680156108bf5780820380516001836020036101000a031916815260200191505b509250505060405180910390fd5b50662386f26fc10000341161092d576040517f08c379a000000000000000000000000000000000000000000000000000000000815260040180806020018281038252603b815260200180610b1c603b913960400191505060405180910390fd5b6002339080600181540180825580915050600190039060005260206000200160009091909190916101000a81548173ffffffffffffffffffffffffffffffffffffffff021916908373ffffffffffffffffffffffffffffffffffffffff16021790555050565b600281815481106109a357600080fd5b906000526020600020016000915054906101000a900473ffffffffffffffffffffffffffffffffffffffff1681565b600044426002604051602001808481526020018381526020018280548015610a4f57602002820191906000526020600020905b8160009054906101000a900473ffffffffffffffffffffffffffffffffffffffff1673ffffffffffffffffffffffffffffffffffffffff1681526020019060010190808311610a05575b505093505050506040516020818303038152906040528051906020012060001c905090565b828054828255906000526020600020908101928215610aed579160200282015b82811115610aec5782518260006101000a81548173ffffffffffffffffffffffffffffffffffffffff021916908373ffffffffffffffffffffffffffffffffffffffff16021790555091602001919060010190610a94565b5b509050610afa9190610afe565b5090565b5b80821115610b17576000816000905550600101610aff565b509056fe457468657220766c6175652073686f756c6420626520626967676572207468616e20302e303120746f20656e74657220746865206c6f747465727957696e6e65722063616e206265207069636b6564206f6e6c79206279206d616e616765724f6e6c79204d616e616765722063616e2067657420746865206c697374206f6620706c6179657273a264697066735822122089c76ce61e025fa3bd274a9b8eca5b44b92a048738c07d1329e131d7955a979a64736f6c63430007040033",
  "immutableReferences": {},
  "source": "// SPDX-License-Identifier: MIT\npragma solidity 0.7.4;\n\ncontract Lottery {\n    address public manager;\n    address payable public winner;\n    address payable[] public players;\n    \n    constructor() {\n        manager = msg.sender;\n    }\n    \n    function enter() public onlyPlayer(\"Manager can't enter the lottery\") payable {\n        require(msg.value > 0.01 ether, \"Ether vlaue should be bigger than 0.01 to enter the lottery\");\n        players.push(msg.sender);\n    }\n    \n    function notReallyRandom() private view returns (uint) {\n        return uint(keccak256(abi.encodePacked(block.difficulty, block.timestamp, players)));\n    }\n    \n    function getPrizePool() public view onlyManager(\"Restricted to manager only\") returns(uint) {\n        return address(this).balance;\n    }\n\n    function pickWinner() public onlyManager(\"Winner can be picked only by manager\") {\n        winner = players[notReallyRandom()%players.length];\n        winner.transfer(getPrizePool());\n        players = new address payable[](0);\n    }\n\n    function getPlayers() public view onlyManager(\"Only Manager can get the list of players\") returns (address payable[] memory) {\n      return players;\n    }\n    \n    modifier onlyManager(string memory message) {\n      require(msg.sender == manager, message);\n      _;\n    }\n    \n    modifier onlyPlayer(string memory message) {\n      require(msg.sender != manager, message);\n      _;\n    }\n}\n",
  "sourcePath": "/Users/aramix/Nooor Ethereum Course/Dev/Nooor-Ethereum-Dev-Course/Contracts/Lottery/contracts/Lottery.sol",
  "compiler": {
    "name": "solc",
    "version": "0.7.4+commit.3f05b770.Emscripten.clang"
  },
  "schemaVersion": "3.3.4",
  "updatedAt": "2021-03-17T16:47:19.620Z",
  "devdoc": {
    "kind": "dev",
    "methods": {},
    "version": 1
  },
  "userdoc": {
    "kind": "user",
    "methods": {},
    "version": 1
  }
}