{
  "contractName": "Lottery",
  "abi": [
    {
      "inputs": [],
      "stateMutability": "nonpayable",
      "type": "constructor"
    },
    {
      "inputs": [],
      "name": "manager",
      "outputs": [
        {
          "internalType": "address",
          "name": "",
          "type": "address"
        }
      ],
      "stateMutability": "view",
      "type": "function",
      "constant": true
    },
    {
      "inputs": [
        {
          "internalType": "uint256",
          "name": "",
          "type": "uint256"
        }
      ],
      "name": "players",
      "outputs": [
        {
          "internalType": "address payable",
          "name": "",
          "type": "address"
        }
      ],
      "stateMutability": "view",
      "type": "function",
      "constant": true
    },
    {
      "inputs": [],
      "name": "enter",
      "outputs": [],
      "stateMutability": "payable",
      "type": "function",
      "payable": true
    },
    {
      "inputs": [],
      "name": "getPrizePool",
      "outputs": [
        {
          "internalType": "uint256",
          "name": "",
          "type": "uint256"
        }
      ],
      "stateMutability": "view",
      "type": "function",
      "constant": true
    },
    {
      "inputs": [],
      "name": "pickWinner",
      "outputs": [],
      "stateMutability": "nonpayable",
      "type": "function"
    },
    {
      "inputs": [],
      "name": "getPlayers",
      "outputs": [
        {
          "internalType": "address payable[]",
          "name": "",
          "type": "address[]"
        }
      ],
      "stateMutability": "view",
      "type": "function",
      "constant": true
    }
  ],
  "bytecode": "0x608060405234801561001057600080fd5b50336000806101000a81548173ffffffffffffffffffffffffffffffffffffffff021916908373ffffffffffffffffffffffffffffffffffffffff160217905550610af3806100606000396000f3fe6080604052600436106100555760003560e01c8063481c6a751461005a5780635d495aea1461009b578063884bf67c146100b25780638b5b9ccc146100dd578063e97dcb6214610149578063f71d96cb14610153575b600080fd5b34801561006657600080fd5b5061006f6101b8565b604051808273ffffffffffffffffffffffffffffffffffffffff16815260200191505060405180910390f35b3480156100a757600080fd5b506100b06101dc565b005b3480156100be57600080fd5b506100c76103e6565b6040518082815260200191505060405180910390f35b3480156100e957600080fd5b506100f261051c565b6040518080602001828103825283818151815260200191508051906020019060200280838360005b8381101561013557808201518184015260208101905061011a565b505050509050019250505060405180910390f35b6101516106bb565b005b34801561015f57600080fd5b5061018c6004803603602081101561017657600080fd5b81019080803590602001909291905050506108ae565b604051808273ffffffffffffffffffffffffffffffffffffffff16815260200191505060405180910390f35b60008054906101000a900473ffffffffffffffffffffffffffffffffffffffff1681565b604051806060016040528060248152602001610a726024913960008054906101000a900473ffffffffffffffffffffffffffffffffffffffff1673ffffffffffffffffffffffffffffffffffffffff163373ffffffffffffffffffffffffffffffffffffffff161481906102eb576040517f08c379a00000000000000000000000000000000000000000000000000000000081526004018080602001828103825283818151815260200191508051906020019080838360005b838110156102b0578082015181840152602081019050610295565b50505050905090810190601f1680156102dd5780820380516001836020036101000a031916815260200191505b509250505060405180910390fd5b50600180805490506102fb6108ed565b8161030257fe5b068154811061030d57fe5b9060005260206000200160009054906101000a900473ffffffffffffffffffffffffffffffffffffffff1673ffffffffffffffffffffffffffffffffffffffff166108fc6103596103e6565b9081150290604051600060405180830381858888f19350505050158015610384573d6000803e3d6000fd5b50600067ffffffffffffffff8111801561039d57600080fd5b506040519080825280602002602001820160405280156103cc5781602001602082028036833780820191505090505b50600190805190602001906103e292919061098f565b5050565b60006040518060400160405280601a81526020017f5265737472696374656420746f206d616e61676572206f6e6c7900000000000081525060008054906101000a900473ffffffffffffffffffffffffffffffffffffffff1673ffffffffffffffffffffffffffffffffffffffff163373ffffffffffffffffffffffffffffffffffffffff16148190610514576040517f08c379a00000000000000000000000000000000000000000000000000000000081526004018080602001828103825283818151815260200191508051906020019080838360005b838110156104d95780820151818401526020810190506104be565b50505050905090810190601f1680156105065780820380516001836020036101000a031916815260200191505b509250505060405180910390fd5b504791505090565b6060604051806060016040528060288152602001610a966028913960008054906101000a900473ffffffffffffffffffffffffffffffffffffffff1673ffffffffffffffffffffffffffffffffffffffff163373ffffffffffffffffffffffffffffffffffffffff1614819061062d576040517f08c379a00000000000000000000000000000000000000000000000000000000081526004018080602001828103825283818151815260200191508051906020019080838360005b838110156105f25780820151818401526020810190506105d7565b50505050905090810190601f16801561061f5780820380516001836020036101000a031916815260200191505b509250505060405180910390fd5b5060018054806020026020016040519081016040528092919081815260200182805480156106b057602002820191906000526020600020905b8160009054906101000a900473ffffffffffffffffffffffffffffffffffffffff1673ffffffffffffffffffffffffffffffffffffffff1681526020019060010190808311610666575b505050505091505090565b6040518060400160405280601f81526020017f4d616e616765722063616e277420656e74657220746865206c6f74746572790081525060008054906101000a900473ffffffffffffffffffffffffffffffffffffffff1673ffffffffffffffffffffffffffffffffffffffff163373ffffffffffffffffffffffffffffffffffffffff16141581906107e8576040517f08c379a00000000000000000000000000000000000000000000000000000000081526004018080602001828103825283818151815260200191508051906020019080838360005b838110156107ad578082015181840152602081019050610792565b50505050905090810190601f1680156107da5780820380516001836020036101000a031916815260200191505b509250505060405180910390fd5b50662386f26fc100003411610848576040517f08c379a000000000000000000000000000000000000000000000000000000000815260040180806020018281038252603b815260200180610a37603b913960400191505060405180910390fd5b6001339080600181540180825580915050600190039060005260206000200160009091909190916101000a81548173ffffffffffffffffffffffffffffffffffffffff021916908373ffffffffffffffffffffffffffffffffffffffff16021790555050565b600181815481106108be57600080fd5b906000526020600020016000915054906101000a900473ffffffffffffffffffffffffffffffffffffffff1681565b60004442600160405160200180848152602001838152602001828054801561096a57602002820191906000526020600020905b8160009054906101000a900473ffffffffffffffffffffffffffffffffffffffff1673ffffffffffffffffffffffffffffffffffffffff1681526020019060010190808311610920575b505093505050506040516020818303038152906040528051906020012060001c905090565b828054828255906000526020600020908101928215610a08579160200282015b82811115610a075782518260006101000a81548173ffffffffffffffffffffffffffffffffffffffff021916908373ffffffffffffffffffffffffffffffffffffffff160217905550916020019190600101906109af565b5b509050610a159190610a19565b5090565b5b80821115610a32576000816000905550600101610a1a565b509056fe457468657220766c6175652073686f756c6420626520626967676572207468616e20302e303120746f20656e74657220746865206c6f747465727957696e6e65722063616e206265207069636b6564206f6e6c79206279206d616e616765724f6e6c79204d616e616765722063616e2067657420746865206c697374206f6620706c6179657273a26469706673582212202ac3a35acd521a98ddc4de4bdc6f935cb06299374e3daa486847810eddf0933464736f6c63430007040033",
  "immutableReferences": {},
  "source": "// SPDX-License-Identifier: MIT\npragma solidity 0.7.4;\n\ncontract Lottery {\n    address public manager;\n    address payable[] public players;\n    \n    constructor() {\n        manager = msg.sender;\n    }\n    \n    function enter() public onlyPlayer(\"Manager can't enter the lottery\") payable {\n        require(msg.value > 0.01 ether, \"Ether vlaue should be bigger than 0.01 to enter the lottery\");\n        players.push(msg.sender);\n    }\n    \n    function notReallyRandom() private view returns (uint) {\n        return uint(keccak256(abi.encodePacked(block.difficulty, block.timestamp, players)));\n    }\n    \n    function getPrizePool() public view onlyManager(\"Restricted to manager only\") returns(uint) {\n        return address(this).balance;\n    }\n    \n    function pickWinner() public onlyManager(\"Winner can be picked only by manager\") {\n        players[notReallyRandom()%players.length].transfer(getPrizePool());\n        players = new address payable[](0);\n    }\n\n    function getPlayers() public view onlyManager(\"Only Manager can get the list of players\") returns (address payable[] memory) {\n      return players;\n    }\n    \n    modifier onlyManager(string memory message) {\n      require(msg.sender == manager, message);\n      _;\n    }\n    \n    modifier onlyPlayer(string memory message) {\n      require(msg.sender != manager, message);\n      _;\n    }\n}\n",
  "sourcePath": "/Users/aramix/Nooor Ethereum Course/Dev/Nooor-Ethereum-Dev-Course/Contracts/Lottery/contracts/Lottery.sol",
  "compiler": {
    "name": "solc",
    "version": "0.7.4+commit.3f05b770.Emscripten.clang"
  },
  "schemaVersion": "3.3.4",
  "updatedAt": "2021-03-10T17:32:44.922Z",
  "networkType": "ethereum",
  "devdoc": {
    "kind": "dev",
    "methods": {},
    "version": 1
  },
  "userdoc": {
    "kind": "user",
    "methods": {},
    "version": 1
  }
}