{
  "contractName": "CampaignFactory",
  "abi": [
    {
      "inputs": [
        {
          "internalType": "uint256",
          "name": "",
          "type": "uint256"
        }
      ],
      "name": "deployedCampaigns",
      "outputs": [
        {
          "internalType": "string",
          "name": "name",
          "type": "string"
        },
        {
          "internalType": "string",
          "name": "description",
          "type": "string"
        },
        {
          "internalType": "address",
          "name": "campaignAddress",
          "type": "address"
        }
      ],
      "stateMutability": "view",
      "type": "function",
      "constant": true
    },
    {
      "inputs": [
        {
          "internalType": "uint256",
          "name": "minimum",
          "type": "uint256"
        },
        {
          "internalType": "string",
          "name": "name",
          "type": "string"
        },
        {
          "internalType": "string",
          "name": "description",
          "type": "string"
        }
      ],
      "name": "createCampaign",
      "outputs": [],
      "stateMutability": "nonpayable",
      "type": "function"
    },
    {
      "inputs": [],
      "name": "getCampaignsCount",
      "outputs": [
        {
          "internalType": "uint256",
          "name": "",
          "type": "uint256"
        }
      ],
      "stateMutability": "view",
      "type": "function",
      "constant": true
    }
  ],
  "bytecode": "0x608060405234801561001057600080fd5b506118c3806100206000396000f3fe608060405234801561001057600080fd5b50600436106100415760003560e01c8063339d50a5146100465780637e6253da14610176578063fad4dee314610194575b600080fd5b6100726004803603602081101561005c57600080fd5b81019080803590602001909291905050506102f0565b6040518080602001806020018473ffffffffffffffffffffffffffffffffffffffff168152602001838103835286818151815260200191508051906020019080838360005b838110156100d25780820151818401526020810190506100b7565b50505050905090810190601f1680156100ff5780820380516001836020036101000a031916815260200191505b50838103825285818151815260200191508051906020019080838360005b8381101561013857808201518184015260208101905061011d565b50505050905090810190601f1680156101655780820380516001836020036101000a031916815260200191505b509550505050505060405180910390f35b61017e61047a565b6040518082815260200191505060405180910390f35b6102ee600480360360608110156101aa57600080fd5b8101908080359060200190929190803590602001906401000000008111156101d157600080fd5b8201836020820111156101e357600080fd5b8035906020019184600183028401116401000000008311171561020557600080fd5b91908080601f016020809104026020016040519081016040528093929190818152602001838380828437600081840152601f19601f8201169050808301925050505050505091929192908035906020019064010000000081111561026857600080fd5b82018360208201111561027a57600080fd5b8035906020019184600183028401116401000000008311171561029c57600080fd5b91908080601f016020809104026020016040519081016040528093929190818152602001838380828437600081840152601f19601f820116905080830192505050505050509192919290505050610486565b005b6000818154811061030057600080fd5b9060005260206000209060030201600091509050806000018054600181600116156101000203166002900480601f0160208091040260200160405190810160405280929190818152602001828054600181600116156101000203166002900480156103ac5780601f10610381576101008083540402835291602001916103ac565b820191906000526020600020905b81548152906001019060200180831161038f57829003601f168201915b505050505090806001018054600181600116156101000203166002900480601f01602080910402602001604051908101604052809291908181526020018280546001816001161561010002031660029004801561044a5780601f1061041f5761010080835404028352916020019161044a565b820191906000526020600020905b81548152906001019060200180831161042d57829003601f168201915b5050505050908060020160009054906101000a900473ffffffffffffffffffffffffffffffffffffffff16905083565b60008080549050905090565b60008333604051610496906105cd565b808381526020018273ffffffffffffffffffffffffffffffffffffffff16815260200192505050604051809103906000f0801580156104d9573d6000803e3d6000fd5b5090506104e46105da565b60405180606001604052808581526020018481526020018373ffffffffffffffffffffffffffffffffffffffff1681525090506000819080600181540180825580915050600190039060005260206000209060030201600090919091909150600082015181600001908051906020019061055f929190610611565b50602082015181600101908051906020019061057c929190610611565b5060408201518160020160006101000a81548173ffffffffffffffffffffffffffffffffffffffff021916908373ffffffffffffffffffffffffffffffffffffffff16021790555050505050505050565b6111d1806106bd83390190565b60405180606001604052806060815260200160608152602001600073ffffffffffffffffffffffffffffffffffffffff1681525090565b828054600181600116156101000203166002900490600052602060002090601f016020900481019282610647576000855561068e565b82601f1061066057805160ff191683800117855561068e565b8280016001018555821561068e579182015b8281111561068d578251825591602001919060010190610672565b5b50905061069b919061069f565b5090565b5b808211156106b85760008160009055506001016106a0565b509056fe608060405234801561001057600080fd5b506040516111d13803806111d18339818101604052604081101561003357600080fd5b810190808051906020019092919080519060200190929190505050806000806101000a81548173ffffffffffffffffffffffffffffffffffffffff021916908373ffffffffffffffffffffffffffffffffffffffff16021790555081600181905550505061112b806100a66000396000f3fe6080604052600436106100915760003560e01c806381d12c581161005957806381d12c58146101ef5780638a9cfd55146102d7578063937e09b1146103c9578063d7bb99ba146103f4578063d7d1bbdb146103fe57610091565b80631f6d4942146100965780633410452a146100fb5780634051ddac14610126578063481c6a75146101835780637569b3d7146101c4575b600080fd5b3480156100a257600080fd5b506100e5600480360360208110156100b957600080fd5b81019080803573ffffffffffffffffffffffffffffffffffffffff169060200190929190505050610439565b6040518082815260200191505060405180910390f35b34801561010757600080fd5b50610110610451565b6040518082815260200191505060405180910390f35b34801561013257600080fd5b5061013b61045e565b604051808673ffffffffffffffffffffffffffffffffffffffff1681526020018581526020018481526020018381526020018281526020019550505050505060405180910390f35b34801561018f57600080fd5b506101986104a6565b604051808273ffffffffffffffffffffffffffffffffffffffff16815260200191505060405180910390f35b3480156101d057600080fd5b506101d96104ca565b6040518082815260200191505060405180910390f35b3480156101fb57600080fd5b506102286004803603602081101561021257600080fd5b81019080803590602001909291905050506104d0565b60405180806020018681526020018573ffffffffffffffffffffffffffffffffffffffff1681526020018415158152602001838152602001828103825287818151815260200191508051906020019080838360005b8381101561029857808201518184015260208101905061027d565b50505050905090810190601f1680156102c55780820380516001836020036101000a031916815260200191505b50965050505050505060405180910390f35b3480156102e357600080fd5b506103c7600480360360608110156102fa57600080fd5b810190808035906020019064010000000081111561031757600080fd5b82018360208201111561032957600080fd5b8035906020019184600183028401116401000000008311171561034b57600080fd5b91908080601f016020809104026020016040519081016040528093929190818152602001838380828437600081840152601f19601f82011690508083019250505050505050919291929080359060200190929190803573ffffffffffffffffffffffffffffffffffffffff1690602001909291905050506105db565b005b3480156103d557600080fd5b506103de6107fb565b6040518082815260200191505060405180910390f35b6103fc610801565b005b34801561040a57600080fd5b506104376004803603602081101561042157600080fd5b8101908080359060200190929190505050610a84565b005b60036020528060005260406000206000915090505481565b6000600480549050905090565b60008060008060008060009054906101000a900473ffffffffffffffffffffffffffffffffffffffff1660025460015447600480549050945094509450945094509091929394565b60008054906101000a900473ffffffffffffffffffffffffffffffffffffffff1681565b60025481565b600481815481106104e057600080fd5b9060005260206000209060050201600091509050806000018054600181600116156101000203166002900480601f01602080910402602001604051908101604052809291908181526020018280546001816001161561010002031660029004801561058c5780601f106105615761010080835404028352916020019161058c565b820191906000526020600020905b81548152906001019060200180831161056f57829003601f168201915b5050505050908060010154908060020160009054906101000a900473ffffffffffffffffffffffffffffffffffffffff16908060020160149054906101000a900460ff16908060030154905085565b6040518060600160405280602a81526020016110cc602a913960008054906101000a900473ffffffffffffffffffffffffffffffffffffffff1673ffffffffffffffffffffffffffffffffffffffff163373ffffffffffffffffffffffffffffffffffffffff161481906106ea576040517f08c379a00000000000000000000000000000000000000000000000000000000081526004018080602001828103825283818151815260200191508051906020019080838360005b838110156106af578082015181840152602081019050610694565b50505050905090810190601f1680156106dc5780820380516001836020036101000a031916815260200191505b509250505060405180910390fd5b5047831115610744576040517f08c379a00000000000000000000000000000000000000000000000000000000081526004018080602001828103825260378152602001806110706037913960400191505060405180910390fd5b60006004600181600181540180825580915050039060005260206000209060050201905083816001018190555084816000019080519060200190610789929190610f3a565b50828160020160006101000a81548173ffffffffffffffffffffffffffffffffffffffff021916908373ffffffffffffffffffffffffffffffffffffffff16021790555060008160020160146101000a81548160ff021916908315150217905550600081600301819055505050505050565b60015481565b6040518060600160405280602f8152602001611041602f913960008054906101000a900473ffffffffffffffffffffffffffffffffffffffff1673ffffffffffffffffffffffffffffffffffffffff163373ffffffffffffffffffffffffffffffffffffffff1614158190610911576040517f08c379a00000000000000000000000000000000000000000000000000000000081526004018080602001828103825283818151815260200191508051906020019080838360005b838110156108d65780820151818401526020810190506108bb565b50505050905090810190601f1680156109035780820380516001836020036101000a031916815260200191505b509250505060405180910390fd5b5060015434101561096d576040517f08c379a000000000000000000000000000000000000000000000000000000000815260040180806020018281038252603581526020018061100c6035913960400191505060405180910390fd5b6000600360003373ffffffffffffffffffffffffffffffffffffffff1673ffffffffffffffffffffffffffffffffffffffff1681526020019081526020016000205414610a22576040517f08c379a000000000000000000000000000000000000000000000000000000000815260040180806020018281038252601c8152602001807f596f752063616e20636f6e74726962757465206f6e6c79206f6e63650000000081525060200191505060405180910390fd5b34600360003373ffffffffffffffffffffffffffffffffffffffff1673ffffffffffffffffffffffffffffffffffffffff1681526020019081526020016000206000828254019250508190555060026000815480929190600101919050555050565b6040518060600160405280602581526020016110a76025913960008054906101000a900473ffffffffffffffffffffffffffffffffffffffff1673ffffffffffffffffffffffffffffffffffffffff163373ffffffffffffffffffffffffffffffffffffffff1614158190610b94576040517f08c379a00000000000000000000000000000000000000000000000000000000081526004018080602001828103825283818151815260200191508051906020019080838360005b83811015610b59578082015181840152602081019050610b3e565b50505050905090810190601f168015610b865780820380516001836020036101000a031916815260200191505b509250505060405180910390fd5b50816040518060400160405280601f81526020017f436f6e7472696275746f72732063616e20766f7465206f6e6c79206f6e6365008152503373ffffffffffffffffffffffffffffffffffffffff1660048381548110610bf057fe5b906000526020600020906005020160040160003373ffffffffffffffffffffffffffffffffffffffff1673ffffffffffffffffffffffffffffffffffffffff16815260200190815260200160002060009054906101000a900473ffffffffffffffffffffffffffffffffffffffff1673ffffffffffffffffffffffffffffffffffffffff1614158190610d1e576040517f08c379a00000000000000000000000000000000000000000000000000000000081526004018080602001828103825283818151815260200191508051906020019080838360005b83811015610ce3578082015181840152602081019050610cc8565b50505050905090810190601f168015610d105780820380516001836020036101000a031916815260200191505b509250505060405180910390fd5b50600154600360003373ffffffffffffffffffffffffffffffffffffffff1673ffffffffffffffffffffffffffffffffffffffff168152602001908152602001600020541015610db9576040517f08c379a0000000000000000000000000000000000000000000000000000000008152600401808060200182810382526026815260200180610fe66026913960400191505060405180910390fd5b600060048581548110610dc857fe5b90600052602060002090600502019050338160040160003373ffffffffffffffffffffffffffffffffffffffff1673ffffffffffffffffffffffffffffffffffffffff16815260200190815260200160002060006101000a81548173ffffffffffffffffffffffffffffffffffffffff021916908373ffffffffffffffffffffffffffffffffffffffff16021790555080600301600081548092919060010191905055508060020160149054906101000a900460ff16610e8c57610e8b81610e93565b5b5050505050565b6002805481610e9e57fe5b0481600301541115610f375760018160020160146101000a81548160ff0219169083151502179055508060020160009054906101000a900473ffffffffffffffffffffffffffffffffffffffff1673ffffffffffffffffffffffffffffffffffffffff166108fc82600101549081150290604051600060405180830381858888f19350505050158015610f35573d6000803e3d6000fd5b505b50565b828054600181600116156101000203166002900490600052602060002090601f016020900481019282610f705760008555610fb7565b82601f10610f8957805160ff1916838001178555610fb7565b82800160010185558215610fb7579182015b82811115610fb6578251825591602001919060010190610f9b565b5b509050610fc49190610fc8565b5090565b5b80821115610fe1576000816000905550600101610fc9565b509056fe4f6e6c7920636f6e7472696275746f72732063616e20617070726f7665207265717565737473506169642065746865722073686f756c6420626520626967676572207468616e206d696e696d756d20636f6e747269627574696f6e4d616e61676572732063616e277420636f6e7472696275746520746f207468656972206f776e2063616d706169676e52657175657374656420616d6f756e742063616e277420626520686967686572207468616e20617661696c61626c652062616c616e63654f6e6c7920617070726f7665722063616e20617070726f76652074686520726571756573744f6e6c79206d616e616765722063616e2063726561746520616e20657870656e73652072657175657374a264697066735822122004c76a5272a831fba66955553ea28b5b08201c1875fc265ca38ad6ac726f90ab64736f6c63430007040033a264697066735822122083921392c715590d44999395e9ad8a13d0017d37396c2cb962bad542fb457cba64736f6c63430007040033",
  "immutableReferences": {},
  "source": "// SPDX-License-Identifier: MIT\npragma solidity 0.7.4;\n\nimport \"./Campaign.sol\";\n\ncontract CampaignFactory {\n    CampaignStruct[] public deployedCampaigns;\n    struct CampaignStruct {\n        string name;\n        string description;\n        address campaignAddress;\n    }\n\n    function createCampaign(\n        uint256 minimum,\n        string memory name,\n        string memory description\n    ) public {\n        address campaignAddress = address(new Campaign(minimum, msg.sender));\n        CampaignStruct memory newCampaign =\n            CampaignStruct({\n                name: name,\n                description: description,\n                campaignAddress: campaignAddress\n            });\n\n        deployedCampaigns.push(newCampaign);\n    }\n\n    function getCampaignsCount() public view returns (uint256) {\n        return deployedCampaigns.length;\n    }\n}\n",
  "sourcePath": "/Users/aramix/Nooor Ethereum Course/Dev/Nooor-Ethereum-Dev-Course/Contracts/Kickstarter/contracts/CampaignFactory.sol",
  "compiler": {
    "name": "solc",
    "version": "0.7.4+commit.3f05b770.Emscripten.clang"
  },
  "schemaVersion": "3.3.4",
  "updatedAt": "2021-04-09T17:40:30.273Z",
  "networkType": "ethereum",
  "devdoc": {
    "kind": "dev",
    "methods": {},
    "version": 1
  },
  "userdoc": {
    "kind": "user",
    "methods": {},
    "version": 1
  }
}