{
  "contractName": "Campaign",
  "abi": [
    {
      "inputs": [
        {
          "internalType": "uint256",
          "name": "minimum",
          "type": "uint256"
        },
        {
          "internalType": "address",
          "name": "creator",
          "type": "address"
        }
      ],
      "stateMutability": "nonpayable",
      "type": "constructor"
    },
    {
      "inputs": [
        {
          "internalType": "address",
          "name": "",
          "type": "address"
        }
      ],
      "name": "contributors",
      "outputs": [
        {
          "internalType": "uint256",
          "name": "",
          "type": "uint256"
        }
      ],
      "stateMutability": "view",
      "type": "function"
    },
    {
      "inputs": [],
      "name": "contributorsCount",
      "outputs": [
        {
          "internalType": "uint256",
          "name": "",
          "type": "uint256"
        }
      ],
      "stateMutability": "view",
      "type": "function"
    },
    {
      "inputs": [],
      "name": "manager",
      "outputs": [
        {
          "internalType": "address",
          "name": "",
          "type": "address"
        }
      ],
      "stateMutability": "view",
      "type": "function"
    },
    {
      "inputs": [],
      "name": "minimumContribution",
      "outputs": [
        {
          "internalType": "uint256",
          "name": "",
          "type": "uint256"
        }
      ],
      "stateMutability": "view",
      "type": "function"
    },
    {
      "inputs": [
        {
          "internalType": "uint256",
          "name": "",
          "type": "uint256"
        }
      ],
      "name": "requests",
      "outputs": [
        {
          "internalType": "string",
          "name": "description",
          "type": "string"
        },
        {
          "internalType": "uint256",
          "name": "value",
          "type": "uint256"
        },
        {
          "internalType": "address payable",
          "name": "recipient",
          "type": "address"
        },
        {
          "internalType": "bool",
          "name": "complete",
          "type": "bool"
        },
        {
          "internalType": "uint256",
          "name": "approvalCount",
          "type": "uint256"
        }
      ],
      "stateMutability": "view",
      "type": "function"
    },
    {
      "inputs": [],
      "name": "contribute",
      "outputs": [],
      "stateMutability": "payable",
      "type": "function"
    },
    {
      "inputs": [
        {
          "internalType": "string",
          "name": "desc",
          "type": "string"
        },
        {
          "internalType": "uint256",
          "name": "value",
          "type": "uint256"
        },
        {
          "internalType": "address payable",
          "name": "recipient",
          "type": "address"
        }
      ],
      "name": "createRequest",
      "outputs": [],
      "stateMutability": "nonpayable",
      "type": "function"
    },
    {
      "inputs": [
        {
          "internalType": "uint256",
          "name": "requestIndex",
          "type": "uint256"
        }
      ],
      "name": "approveRequest",
      "outputs": [],
      "stateMutability": "nonpayable",
      "type": "function"
    },
    {
      "inputs": [],
      "name": "getRequestsCount",
      "outputs": [
        {
          "internalType": "uint256",
          "name": "",
          "type": "uint256"
        }
      ],
      "stateMutability": "view",
      "type": "function"
    },
    {
      "inputs": [],
      "name": "getSummary",
      "outputs": [
        {
          "internalType": "address",
          "name": "",
          "type": "address"
        },
        {
          "internalType": "uint256",
          "name": "",
          "type": "uint256"
        },
        {
          "internalType": "uint256",
          "name": "",
          "type": "uint256"
        },
        {
          "internalType": "uint256",
          "name": "",
          "type": "uint256"
        },
        {
          "internalType": "uint256",
          "name": "",
          "type": "uint256"
        }
      ],
      "stateMutability": "view",
      "type": "function"
    }
  ],
  "bytecode": "0x608060405234801561001057600080fd5b506040516111d13803806111d18339818101604052604081101561003357600080fd5b810190808051906020019092919080519060200190929190505050806000806101000a81548173ffffffffffffffffffffffffffffffffffffffff021916908373ffffffffffffffffffffffffffffffffffffffff16021790555081600181905550505061112b806100a66000396000f3fe6080604052600436106100915760003560e01c806381d12c581161005957806381d12c58146101ef5780638a9cfd55146102d7578063937e09b1146103c9578063d7bb99ba146103f4578063d7d1bbdb146103fe57610091565b80631f6d4942146100965780633410452a146100fb5780634051ddac14610126578063481c6a75146101835780637569b3d7146101c4575b600080fd5b3480156100a257600080fd5b506100e5600480360360208110156100b957600080fd5b81019080803573ffffffffffffffffffffffffffffffffffffffff169060200190929190505050610439565b6040518082815260200191505060405180910390f35b34801561010757600080fd5b50610110610451565b6040518082815260200191505060405180910390f35b34801561013257600080fd5b5061013b61045e565b604051808673ffffffffffffffffffffffffffffffffffffffff1681526020018581526020018481526020018381526020018281526020019550505050505060405180910390f35b34801561018f57600080fd5b506101986104a6565b604051808273ffffffffffffffffffffffffffffffffffffffff16815260200191505060405180910390f35b3480156101d057600080fd5b506101d96104ca565b6040518082815260200191505060405180910390f35b3480156101fb57600080fd5b506102286004803603602081101561021257600080fd5b81019080803590602001909291905050506104d0565b60405180806020018681526020018573ffffffffffffffffffffffffffffffffffffffff1681526020018415158152602001838152602001828103825287818151815260200191508051906020019080838360005b8381101561029857808201518184015260208101905061027d565b50505050905090810190601f1680156102c55780820380516001836020036101000a031916815260200191505b50965050505050505060405180910390f35b3480156102e357600080fd5b506103c7600480360360608110156102fa57600080fd5b810190808035906020019064010000000081111561031757600080fd5b82018360208201111561032957600080fd5b8035906020019184600183028401116401000000008311171561034b57600080fd5b91908080601f016020809104026020016040519081016040528093929190818152602001838380828437600081840152601f19601f82011690508083019250505050505050919291929080359060200190929190803573ffffffffffffffffffffffffffffffffffffffff1690602001909291905050506105db565b005b3480156103d557600080fd5b506103de6107fb565b6040518082815260200191505060405180910390f35b6103fc610801565b005b34801561040a57600080fd5b506104376004803603602081101561042157600080fd5b8101908080359060200190929190505050610a84565b005b60036020528060005260406000206000915090505481565b6000600480549050905090565b60008060008060008060009054906101000a900473ffffffffffffffffffffffffffffffffffffffff1660025460015447600480549050945094509450945094509091929394565b60008054906101000a900473ffffffffffffffffffffffffffffffffffffffff1681565b60025481565b600481815481106104e057600080fd5b9060005260206000209060050201600091509050806000018054600181600116156101000203166002900480601f01602080910402602001604051908101604052809291908181526020018280546001816001161561010002031660029004801561058c5780601f106105615761010080835404028352916020019161058c565b820191906000526020600020905b81548152906001019060200180831161056f57829003601f168201915b5050505050908060010154908060020160009054906101000a900473ffffffffffffffffffffffffffffffffffffffff16908060020160149054906101000a900460ff16908060030154905085565b6040518060600160405280602a81526020016110cc602a913960008054906101000a900473ffffffffffffffffffffffffffffffffffffffff1673ffffffffffffffffffffffffffffffffffffffff163373ffffffffffffffffffffffffffffffffffffffff161481906106ea576040517f08c379a00000000000000000000000000000000000000000000000000000000081526004018080602001828103825283818151815260200191508051906020019080838360005b838110156106af578082015181840152602081019050610694565b50505050905090810190601f1680156106dc5780820380516001836020036101000a031916815260200191505b509250505060405180910390fd5b5047831115610744576040517f08c379a00000000000000000000000000000000000000000000000000000000081526004018080602001828103825260378152602001806110706037913960400191505060405180910390fd5b60006004600181600181540180825580915050039060005260206000209060050201905083816001018190555084816000019080519060200190610789929190610f3a565b50828160020160006101000a81548173ffffffffffffffffffffffffffffffffffffffff021916908373ffffffffffffffffffffffffffffffffffffffff16021790555060008160020160146101000a81548160ff021916908315150217905550600081600301819055505050505050565b60015481565b6040518060600160405280602f8152602001611041602f913960008054906101000a900473ffffffffffffffffffffffffffffffffffffffff1673ffffffffffffffffffffffffffffffffffffffff163373ffffffffffffffffffffffffffffffffffffffff1614158190610911576040517f08c379a00000000000000000000000000000000000000000000000000000000081526004018080602001828103825283818151815260200191508051906020019080838360005b838110156108d65780820151818401526020810190506108bb565b50505050905090810190601f1680156109035780820380516001836020036101000a031916815260200191505b509250505060405180910390fd5b5060015434101561096d576040517f08c379a000000000000000000000000000000000000000000000000000000000815260040180806020018281038252603581526020018061100c6035913960400191505060405180910390fd5b6000600360003373ffffffffffffffffffffffffffffffffffffffff1673ffffffffffffffffffffffffffffffffffffffff1681526020019081526020016000205414610a22576040517f08c379a000000000000000000000000000000000000000000000000000000000815260040180806020018281038252601c8152602001807f596f752063616e20636f6e74726962757465206f6e6c79206f6e63650000000081525060200191505060405180910390fd5b34600360003373ffffffffffffffffffffffffffffffffffffffff1673ffffffffffffffffffffffffffffffffffffffff1681526020019081526020016000206000828254019250508190555060026000815480929190600101919050555050565b6040518060600160405280602581526020016110a76025913960008054906101000a900473ffffffffffffffffffffffffffffffffffffffff1673ffffffffffffffffffffffffffffffffffffffff163373ffffffffffffffffffffffffffffffffffffffff1614158190610b94576040517f08c379a00000000000000000000000000000000000000000000000000000000081526004018080602001828103825283818151815260200191508051906020019080838360005b83811015610b59578082015181840152602081019050610b3e565b50505050905090810190601f168015610b865780820380516001836020036101000a031916815260200191505b509250505060405180910390fd5b50816040518060400160405280601f81526020017f436f6e7472696275746f72732063616e20766f7465206f6e6c79206f6e6365008152503373ffffffffffffffffffffffffffffffffffffffff1660048381548110610bf057fe5b906000526020600020906005020160040160003373ffffffffffffffffffffffffffffffffffffffff1673ffffffffffffffffffffffffffffffffffffffff16815260200190815260200160002060009054906101000a900473ffffffffffffffffffffffffffffffffffffffff1673ffffffffffffffffffffffffffffffffffffffff1614158190610d1e576040517f08c379a00000000000000000000000000000000000000000000000000000000081526004018080602001828103825283818151815260200191508051906020019080838360005b83811015610ce3578082015181840152602081019050610cc8565b50505050905090810190601f168015610d105780820380516001836020036101000a031916815260200191505b509250505060405180910390fd5b50600154600360003373ffffffffffffffffffffffffffffffffffffffff1673ffffffffffffffffffffffffffffffffffffffff168152602001908152602001600020541015610db9576040517f08c379a0000000000000000000000000000000000000000000000000000000008152600401808060200182810382526026815260200180610fe66026913960400191505060405180910390fd5b600060048581548110610dc857fe5b90600052602060002090600502019050338160040160003373ffffffffffffffffffffffffffffffffffffffff1673ffffffffffffffffffffffffffffffffffffffff16815260200190815260200160002060006101000a81548173ffffffffffffffffffffffffffffffffffffffff021916908373ffffffffffffffffffffffffffffffffffffffff16021790555080600301600081548092919060010191905055508060020160149054906101000a900460ff16610e8c57610e8b81610e93565b5b5050505050565b6002805481610e9e57fe5b0481600301541115610f375760018160020160146101000a81548160ff0219169083151502179055508060020160009054906101000a900473ffffffffffffffffffffffffffffffffffffffff1673ffffffffffffffffffffffffffffffffffffffff166108fc82600101549081150290604051600060405180830381858888f19350505050158015610f35573d6000803e3d6000fd5b505b50565b828054600181600116156101000203166002900490600052602060002090601f016020900481019282610f705760008555610fb7565b82601f10610f8957805160ff1916838001178555610fb7565b82800160010185558215610fb7579182015b82811115610fb6578251825591602001919060010190610f9b565b5b509050610fc49190610fc8565b5090565b5b80821115610fe1576000816000905550600101610fc9565b509056fe4f6e6c7920636f6e7472696275746f72732063616e20617070726f7665207265717565737473506169642065746865722073686f756c6420626520626967676572207468616e206d696e696d756d20636f6e747269627574696f6e4d616e61676572732063616e277420636f6e7472696275746520746f207468656972206f776e2063616d706169676e52657175657374656420616d6f756e742063616e277420626520686967686572207468616e20617661696c61626c652062616c616e63654f6e6c7920617070726f7665722063616e20617070726f76652074686520726571756573744f6e6c79206d616e616765722063616e2063726561746520616e20657870656e73652072657175657374a264697066735822122004c76a5272a831fba66955553ea28b5b08201c1875fc265ca38ad6ac726f90ab64736f6c63430007040033",
  "immutableReferences": {},
  "source": "// SPDX-License-Identifier: MIT\npragma solidity 0.7.4;\n\ncontract Campaign {\n    address public manager;\n    uint256 public minimumContribution;\n    uint256 public contributorsCount;\n    mapping(address => uint256) public contributors;\n\n    struct Request {\n        string description;\n        uint256 value;\n        address payable recipient;\n        bool complete;\n        uint256 approvalCount;\n        mapping(address => address) approvals;\n    }\n    Request[] public requests;\n\n    constructor(uint256 minimum, address creator) {\n        manager = creator;\n        minimumContribution = minimum;\n    }\n\n    function contribute()\n        public\n        payable\n        onlyContributor(\"Managers can't contribute to their own campaign\")\n    {\n        require(\n            msg.value >= minimumContribution,\n            \"Paid ether should be bigger than minimum contribution\"\n        );\n        require(contributors[msg.sender] == 0, \"You can contribute only once\");\n        contributors[msg.sender] += msg.value;\n        contributorsCount++;\n    }\n\n    function createRequest(\n        string memory desc,\n        uint256 value,\n        address payable recipient\n    ) public onlyManager(\"Only manager can create an expense request\") {\n        require(\n            value <= address(this).balance,\n            \"Requested amount can't be higher than available balance\"\n        );\n        Request storage newRequest = requests.push();\n        newRequest.value = value;\n        newRequest.description = desc;\n        newRequest.recipient = recipient;\n        newRequest.complete = false;\n        newRequest.approvalCount = 0;\n    }\n\n    function approveRequest(uint256 requestIndex)\n        public\n        onlyContributor(\"Only approver can approve the request\")\n        nonApprover(requestIndex, \"Contributors can vote only once\")\n    {\n        require(\n            contributors[msg.sender] >= minimumContribution,\n            \"Only contributors can approve requests\"\n        );\n        Request storage request = requests[requestIndex];\n\n        request.approvals[msg.sender] = msg.sender;\n        request.approvalCount++;\n\n        if (!request.complete) finalizeRequest(request);\n    }\n\n    function finalizeRequest(Request storage request) private {\n        if (request.approvalCount > (contributorsCount / 2)) {\n            request.complete = true;\n            request.recipient.transfer(request.value);\n        }\n    }\n\n    function getRequestsCount() public view returns (uint256) {\n        return requests.length;\n    }\n\n    function getSummary()\n        public\n        view\n        returns (\n            address,\n            uint256,\n            uint256,\n            uint256,\n            uint256\n        )\n    {\n        return (\n            manager,\n            contributorsCount,\n            minimumContribution,\n            address(this).balance,\n            requests.length\n        );\n    }\n\n    modifier onlyContributor(string memory desc) {\n        require(msg.sender != manager, desc);\n        _;\n    }\n\n    modifier nonApprover(uint256 requestIndex, string memory desc) {\n        require(\n            requests[requestIndex].approvals[msg.sender] != msg.sender,\n            desc\n        );\n        _;\n    }\n\n    modifier onlyManager(string memory desc) {\n        require(msg.sender == manager, desc);\n        _;\n    }\n}\n",
  "sourcePath": "/Users/aramix/Nooor Ethereum Course/Dev/Nooor-Ethereum-Dev-Course/Contracts/Kickstarter/contracts/Campaign.sol",
  "compiler": {
    "name": "solc",
    "version": "0.7.4+commit.3f05b770.Emscripten.clang"
  },
  "schemaVersion": "3.3.4",
  "updatedAt": "2021-04-09T16:18:53.826Z",
  "devdoc": {
    "kind": "dev",
    "methods": {},
    "version": 1
  },
  "userdoc": {
    "kind": "user",
    "methods": {},
    "version": 1
  }
}