{
  "contractName": "CampaignFactory",
  "abi": [
    {
      "inputs": [
        {
          "internalType": "uint256",
          "name": "minimum",
          "type": "uint256"
        }
      ],
      "name": "createCampaign",
      "outputs": [],
      "stateMutability": "nonpayable",
      "type": "function"
    },
    {
      "inputs": [],
      "name": "getCampaigns",
      "outputs": [
        {
          "internalType": "address[]",
          "name": "",
          "type": "address[]"
        }
      ],
      "stateMutability": "view",
      "type": "function",
      "constant": true
    }
  ],
  "bytecode": "0x608060405234801561001057600080fd5b5061133a806100206000396000f3fe608060405234801561001057600080fd5b50600436106100365760003560e01c8063a3303a751461003b578063a6b0363314610069575b600080fd5b6100676004803603602081101561005157600080fd5b81019080803590602001909291905050506100c8565b005b610071610185565b6040518080602001828103825283818151815260200191508051906020019060200280838360005b838110156100b4578082015181840152602081019050610099565b505050509050019250505060405180910390f35b600081336040516100d890610213565b808381526020018273ffffffffffffffffffffffffffffffffffffffff16815260200192505050604051809103906000f08015801561011b573d6000803e3d6000fd5b5090506000819080600181540180825580915050600190039060005260206000200160009091909190916101000a81548173ffffffffffffffffffffffffffffffffffffffff021916908373ffffffffffffffffffffffffffffffffffffffff1602179055505050565b6060600080548060200260200160405190810160405280929190818152602001828054801561020957602002820191906000526020600020905b8160009054906101000a900473ffffffffffffffffffffffffffffffffffffffff1673ffffffffffffffffffffffffffffffffffffffff16815260200190600101908083116101bf575b5050505050905090565b6110e4806102218339019056fe608060405234801561001057600080fd5b506040516110e43803806110e48339818101604052604081101561003357600080fd5b810190808051906020019092919080519060200190929190505050806000806101000a81548173ffffffffffffffffffffffffffffffffffffffff021916908373ffffffffffffffffffffffffffffffffffffffff160217905550670de0b6b3a764000082026001819055505050611034806100b06000396000f3fe6080604052600436106100865760003560e01c806381d12c581161005957806381d12c58146101b95780638a9cfd55146102a1578063937e09b114610393578063d7bb99ba146103be578063d7d1bbdb146103c857610086565b80631f6d49421461008b5780634051ddac146100f0578063481c6a751461014d5780637569b3d71461018e575b600080fd5b34801561009757600080fd5b506100da600480360360208110156100ae57600080fd5b81019080803573ffffffffffffffffffffffffffffffffffffffff169060200190929190505050610403565b6040518082815260200191505060405180910390f35b3480156100fc57600080fd5b5061010561041b565b604051808673ffffffffffffffffffffffffffffffffffffffff1681526020018581526020018481526020018381526020018281526020019550505050505060405180910390f35b34801561015957600080fd5b50610162610463565b604051808273ffffffffffffffffffffffffffffffffffffffff16815260200191505060405180910390f35b34801561019a57600080fd5b506101a3610487565b6040518082815260200191505060405180910390f35b3480156101c557600080fd5b506101f2600480360360208110156101dc57600080fd5b810190808035906020019092919050505061048d565b60405180806020018681526020018573ffffffffffffffffffffffffffffffffffffffff1681526020018415158152602001838152602001828103825287818151815260200191508051906020019080838360005b83811015610262578082015181840152602081019050610247565b50505050905090810190601f16801561028f5780820380516001836020036101000a031916815260200191505b50965050505050505060405180910390f35b3480156102ad57600080fd5b50610391600480360360608110156102c457600080fd5b81019080803590602001906401000000008111156102e157600080fd5b8201836020820111156102f357600080fd5b8035906020019184600183028401116401000000008311171561031557600080fd5b91908080601f016020809104026020016040519081016040528093929190818152602001838380828437600081840152601f19601f82011690508083019250505050505050919291929080359060200190929190803573ffffffffffffffffffffffffffffffffffffffff169060200190929190505050610598565b005b34801561039f57600080fd5b506103a86107c2565b6040518082815260200191505060405180910390f35b6103c66107c8565b005b3480156103d457600080fd5b50610401600480360360208110156103eb57600080fd5b810190808035906020019092919050505061098d565b005b60036020528060005260406000206000915090505481565b60008060008060008060009054906101000a900473ffffffffffffffffffffffffffffffffffffffff1660025460015447600480549050945094509450945094509091929394565b60008054906101000a900473ffffffffffffffffffffffffffffffffffffffff1681565b60025481565b6004818154811061049d57600080fd5b9060005260206000209060050201600091509050806000018054600181600116156101000203166002900480601f0160208091040260200160405190810160405280929190818152602001828054600181600116156101000203166002900480156105495780601f1061051e57610100808354040283529160200191610549565b820191906000526020600020905b81548152906001019060200180831161052c57829003601f168201915b5050505050908060010154908060020160009054906101000a900473ffffffffffffffffffffffffffffffffffffffff16908060020160149054906101000a900460ff16908060030154905085565b6040518060600160405280602a8152602001610fd5602a913960008054906101000a900473ffffffffffffffffffffffffffffffffffffffff1673ffffffffffffffffffffffffffffffffffffffff163373ffffffffffffffffffffffffffffffffffffffff161481906106a7576040517f08c379a00000000000000000000000000000000000000000000000000000000081526004018080602001828103825283818151815260200191508051906020019080838360005b8381101561066c578082015181840152602081019050610651565b50505050905090810190601f1680156106995780820380516001836020036101000a031916815260200191505b509250505060405180910390fd5b5047831115610701576040517f08c379a0000000000000000000000000000000000000000000000000000000008152600401808060200182810382526037815260200180610f796037913960400191505060405180910390fd5b600060046001816001815401808255809150500390600052602060002090600502019050670de0b6b3a76400008402816001018190555084816000019080519060200190610750929190610e43565b50828160020160006101000a81548173ffffffffffffffffffffffffffffffffffffffff021916908373ffffffffffffffffffffffffffffffffffffffff16021790555060008160020160146101000a81548160ff021916908315150217905550600081600301819055505050505050565b60015481565b6040518060600160405280602f8152602001610f4a602f913960008054906101000a900473ffffffffffffffffffffffffffffffffffffffff1673ffffffffffffffffffffffffffffffffffffffff163373ffffffffffffffffffffffffffffffffffffffff16141581906108d8576040517f08c379a00000000000000000000000000000000000000000000000000000000081526004018080602001828103825283818151815260200191508051906020019080838360005b8381101561089d578082015181840152602081019050610882565b50505050905090810190601f1680156108ca5780820380516001836020036101000a031916815260200191505b509250505060405180910390fd5b50600154341015610934576040517f08c379a0000000000000000000000000000000000000000000000000000000008152600401808060200182810382526035815260200180610f156035913960400191505060405180910390fd5b34600360003373ffffffffffffffffffffffffffffffffffffffff1673ffffffffffffffffffffffffffffffffffffffff1681526020019081526020016000208190555060026000815480929190600101919050555050565b604051806060016040528060258152602001610fb06025913960008054906101000a900473ffffffffffffffffffffffffffffffffffffffff1673ffffffffffffffffffffffffffffffffffffffff163373ffffffffffffffffffffffffffffffffffffffff1614158190610a9d576040517f08c379a00000000000000000000000000000000000000000000000000000000081526004018080602001828103825283818151815260200191508051906020019080838360005b83811015610a62578082015181840152602081019050610a47565b50505050905090810190601f168015610a8f5780820380516001836020036101000a031916815260200191505b509250505060405180910390fd5b50816040518060400160405280601f81526020017f436f6e7472696275746f72732063616e20766f7465206f6e6c79206f6e6365008152503373ffffffffffffffffffffffffffffffffffffffff1660048381548110610af957fe5b906000526020600020906005020160040160003373ffffffffffffffffffffffffffffffffffffffff1673ffffffffffffffffffffffffffffffffffffffff16815260200190815260200160002060009054906101000a900473ffffffffffffffffffffffffffffffffffffffff1673ffffffffffffffffffffffffffffffffffffffff1614158190610c27576040517f08c379a00000000000000000000000000000000000000000000000000000000081526004018080602001828103825283818151815260200191508051906020019080838360005b83811015610bec578082015181840152602081019050610bd1565b50505050905090810190601f168015610c195780820380516001836020036101000a031916815260200191505b509250505060405180910390fd5b50600154600360003373ffffffffffffffffffffffffffffffffffffffff1673ffffffffffffffffffffffffffffffffffffffff168152602001908152602001600020541015610cc2576040517f08c379a0000000000000000000000000000000000000000000000000000000008152600401808060200182810382526026815260200180610eef6026913960400191505060405180910390fd5b600060048581548110610cd157fe5b90600052602060002090600502019050338160040160003373ffffffffffffffffffffffffffffffffffffffff1673ffffffffffffffffffffffffffffffffffffffff16815260200190815260200160002060006101000a81548173ffffffffffffffffffffffffffffffffffffffff021916908373ffffffffffffffffffffffffffffffffffffffff16021790555080600301600081548092919060010191905055508060020160149054906101000a900460ff16610d9557610d9481610d9c565b5b5050505050565b6002805481610da757fe5b0481600301541115610e405760018160020160146101000a81548160ff0219169083151502179055508060020160009054906101000a900473ffffffffffffffffffffffffffffffffffffffff1673ffffffffffffffffffffffffffffffffffffffff166108fc82600101549081150290604051600060405180830381858888f19350505050158015610e3e573d6000803e3d6000fd5b505b50565b828054600181600116156101000203166002900490600052602060002090601f016020900481019282610e795760008555610ec0565b82601f10610e9257805160ff1916838001178555610ec0565b82800160010185558215610ec0579182015b82811115610ebf578251825591602001919060010190610ea4565b5b509050610ecd9190610ed1565b5090565b5b80821115610eea576000816000905550600101610ed2565b509056fe4f6e6c7920636f6e7472696275746f72732063616e20617070726f7665207265717565737473506169642065746865722073686f756c6420626520626967676572207468616e206d696e696d756d20636f6e747269627574696f6e4d616e61676572732063616e277420636f6e7472696275746520746f207468656972206f776e2063616d706169676e52657175657374656420616d6f756e742063616e277420626520686967686572207468616e20617661696c61626c652062616c616e63654f6e6c7920617070726f7665722063616e20617070726f76652074686520726571756573744f6e6c79206d616e616765722063616e2063726561746520616e20657870656e73652072657175657374a264697066735822122024e0ee27d71974690792d6f994e67d353622940467fc095c72483d3d816af3bb64736f6c63430007040033a2646970667358221220b9b003d7c33a703f30b8028bb32f7a2ddfd5498c37824b08bfcc0d6140f855a964736f6c63430007040033",
  "immutableReferences": {},
  "source": "// SPDX-License-Identifier: MIT\npragma solidity 0.7.4;\n\nimport \"./Campaign.sol\";\n\ncontract CampaignFactory {\n    address[] deployedCampaignAddresses;\n\n    function createCampaign(uint256 minimum) public {\n        address newCampaign = address(new Campaign(minimum, msg.sender));\n\n        deployedCampaignAddresses.push(newCampaign);\n    }\n\n    function getCampaigns() public view returns (address[] memory) {\n        return deployedCampaignAddresses;\n    }\n}\n",
  "sourcePath": "/Users/aramix/Nooor Ethereum Course/Dev/Nooor-Ethereum-Dev-Course/Contracts/Kickstarter/contracts/CampaignFactory.sol",
  "compiler": {
    "name": "solc",
    "version": "0.7.4+commit.3f05b770.Emscripten.clang"
  },
  "schemaVersion": "3.3.4",
  "updatedAt": "2021-03-29T16:43:41.182Z",
  "networkType": "ethereum",
  "devdoc": {
    "kind": "dev",
    "methods": {},
    "version": 1
  },
  "userdoc": {
    "kind": "user",
    "methods": {},
    "version": 1
  }
}